{"abi":[{"type":"constructor","inputs":[{"name":"_escapeToken","type":"address","internalType":"address"},{"name":"_rewardPerQuiz","type":"uint256","internalType":"uint256"}],"stateMutability":"nonpayable"},{"type":"function","name":"checkQuizAnswer","inputs":[{"name":"quizId","type":"uint256","internalType":"uint256"},{"name":"answerHash","type":"bytes32","internalType":"bytes32"}],"outputs":[{"name":"success","type":"bool","internalType":"bool"}],"stateMutability":"nonpayable"},{"type":"function","name":"completedQuizzes","inputs":[{"name":"","type":"address","internalType":"address"},{"name":"","type":"uint256","internalType":"uint256"}],"outputs":[{"name":"","type":"bool","internalType":"bool"}],"stateMutability":"view"},{"type":"function","name":"escapeToken","inputs":[],"outputs":[{"name":"","type":"address","internalType":"contract EscapeToken"}],"stateMutability":"view"},{"type":"function","name":"getQuizHash","inputs":[{"name":"quizId","type":"uint256","internalType":"uint256"}],"outputs":[{"name":"","type":"bytes32","internalType":"bytes32"}],"stateMutability":"view"},{"type":"function","name":"getRegisteredUsersSlice","inputs":[{"name":"start","type":"uint256","internalType":"uint256"},{"name":"count","type":"uint256","internalType":"uint256"}],"outputs":[{"name":"","type":"address[]","internalType":"address[]"}],"stateMutability":"view"},{"type":"function","name":"isRegistered","inputs":[{"name":"","type":"address","internalType":"address"}],"outputs":[{"name":"","type":"bool","internalType":"bool"}],"stateMutability":"view"},{"type":"function","name":"owner","inputs":[],"outputs":[{"name":"","type":"address","internalType":"address"}],"stateMutability":"view"},{"type":"function","name":"quizCompletions","inputs":[{"name":"","type":"uint256","internalType":"uint256"}],"outputs":[{"name":"","type":"uint256","internalType":"uint256"}],"stateMutability":"view"},{"type":"function","name":"register","inputs":[],"outputs":[],"stateMutability":"nonpayable"},{"type":"function","name":"renounceOwnership","inputs":[],"outputs":[],"stateMutability":"nonpayable"},{"type":"function","name":"rewardPerQuiz","inputs":[],"outputs":[{"name":"","type":"uint256","internalType":"uint256"}],"stateMutability":"view"},{"type":"function","name":"setQuizHash","inputs":[{"name":"quizId","type":"uint256","internalType":"uint256"},{"name":"correctHash","type":"bytes32","internalType":"bytes32"}],"outputs":[],"stateMutability":"nonpayable"},{"type":"function","name":"totalRegisteredUsers","inputs":[],"outputs":[{"name":"","type":"uint256","internalType":"uint256"}],"stateMutability":"view"},{"type":"function","name":"transferOwnership","inputs":[{"name":"newOwner","type":"address","internalType":"address"}],"outputs":[],"stateMutability":"nonpayable"},{"type":"event","name":"OwnershipTransferred","inputs":[{"name":"previousOwner","type":"address","indexed":true,"internalType":"address"},{"name":"newOwner","type":"address","indexed":true,"internalType":"address"}],"anonymous":false},{"type":"event","name":"QuizCompleted","inputs":[{"name":"user","type":"address","indexed":true,"internalType":"address"},{"name":"quizId","type":"uint256","indexed":true,"internalType":"uint256"},{"name":"message","type":"string","indexed":false,"internalType":"string"}],"anonymous":false},{"type":"event","name":"QuizHashUpdated","inputs":[{"name":"quizId","type":"uint256","indexed":true,"internalType":"uint256"},{"name":"newHash","type":"bytes32","indexed":false,"internalType":"bytes32"}],"anonymous":false},{"type":"event","name":"UserRegistered","inputs":[{"name":"user","type":"address","indexed":true,"internalType":"address"}],"anonymous":false}],"bytecode":{"object":"0x60c06040523480156200001157600080fd5b5060405162001b1f38038062001b1f8339818101604052810190620000379190620002cb565b620000576200004b6200015a60201b60201c565b6200016260201b60201c565b60018081905550600073ffffffffffffffffffffffffffffffffffffffff168273ffffffffffffffffffffffffffffffffffffffff1603620000d0576040517f08c379a0000000000000000000000000000000000000000000000000000000008152600401620000c79062000373565b60405180910390fd5b6000811162000116576040517f08c379a00000000000000000000000000000000000000000000000000000000081526004016200010d90620003e5565b60405180910390fd5b8173ffffffffffffffffffffffffffffffffffffffff1660808173ffffffffffffffffffffffffffffffffffffffff16815250508060a08181525050505062000407565b600033905090565b60008060009054906101000a900473ffffffffffffffffffffffffffffffffffffffff169050816000806101000a81548173ffffffffffffffffffffffffffffffffffffffff021916908373ffffffffffffffffffffffffffffffffffffffff1602179055508173ffffffffffffffffffffffffffffffffffffffff168173ffffffffffffffffffffffffffffffffffffffff167f8be0079c531659141344cd1fd0a4f28419497f9722a3daafe3b4186f6b6457e060405160405180910390a35050565b600080fd5b600073ffffffffffffffffffffffffffffffffffffffff82169050919050565b600062000258826200022b565b9050919050565b6200026a816200024b565b81146200027657600080fd5b50565b6000815190506200028a816200025f565b92915050565b6000819050919050565b620002a58162000290565b8114620002b157600080fd5b50565b600081519050620002c5816200029a565b92915050565b60008060408385031215620002e557620002e462000226565b5b6000620002f58582860162000279565b92505060206200030885828601620002b4565b9150509250929050565b600082825260208201905092915050565b7f746f6b656e2061646472207a65726f0000000000000000000000000000000000600082015250565b60006200035b600f8362000312565b9150620003688262000323565b602082019050919050565b600060208201905081810360008301526200038e816200034c565b9050919050565b7f726577617264207a65726f000000000000000000000000000000000000000000600082015250565b6000620003cd600b8362000312565b9150620003da8262000395565b602082019050919050565b600060208201905081810360008301526200040081620003be565b9050919050565b60805160a0516116e46200043b600039600081816107820152610a1d01526000818161053d01526109e001526116e46000f3fe608060405234801561001057600080fd5b50600436106100ea5760003560e01c80638da5cb5b1161008c578063d2e11eae11610066578063d2e11eae14610239578063dcceb1c714610257578063f2fde38b14610287578063f92e150a146102a3576100ea565b80638da5cb5b146101bb578063c2adbe43146101d9578063c3c5a54714610209576100ea565b80634f812483116100c85780634f812483146101335780635a22bd501461016357806360c0078414610181578063715018a6146101b1576100ea565b80631aa3a008146100ef57806323eed97b146100f95780633c7afca514610115575b600080fd5b6100f76102d3565b005b610113600480360381019061010e9190610d99565b610460565b005b61011d6104ff565b60405161012a9190610de8565b60405180910390f35b61014d60048036038101906101489190610e61565b61050c565b60405161015a9190610ebc565b60405180910390f35b61016b61053b565b6040516101789190610f36565b60405180910390f35b61019b60048036038101906101969190610f51565b61055f565b6040516101a89190610f8d565b60405180910390f35b6101b9610584565b005b6101c3610598565b6040516101d09190610fb7565b60405180910390f35b6101f360048036038101906101ee9190610fd2565b6105c1565b60405161020091906110d0565b60405180910390f35b610223600480360381019061021e91906110f2565b610760565b6040516102309190610ebc565b60405180910390f35b610241610780565b60405161024e9190610de8565b60405180910390f35b610271600480360381019061026c9190610d99565b6107a4565b60405161027e9190610ebc565b60405180910390f35b6102a1600480360381019061029c91906110f2565b610aeb565b005b6102bd60048036038101906102b89190610f51565b610b6e565b6040516102ca9190610de8565b60405180910390f35b600460003373ffffffffffffffffffffffffffffffffffffffff1673ffffffffffffffffffffffffffffffffffffffff16815260200190815260200160002060009054906101000a900460ff1615610360576040517f08c379a00000000000000000000000000000000000000000000000000000000081526004016103579061117c565b60405180910390fd5b6001600460003373ffffffffffffffffffffffffffffffffffffffff1673ffffffffffffffffffffffffffffffffffffffff16815260200190815260200160002060006101000a81548160ff0219169083151502179055506005339080600181540180825580915050600190039060005260206000200160009091909190916101000a81548173ffffffffffffffffffffffffffffffffffffffff021916908373ffffffffffffffffffffffffffffffffffffffff1602179055503373ffffffffffffffffffffffffffffffffffffffff167f54db7a5cb4735e1aac1f53db512d3390390bb6637bd30ad4bf9fc98667d9b9b960405160405180910390a2565b610468610b86565b600082036104ab576040517f08c379a00000000000000000000000000000000000000000000000000000000081526004016104a2906111e8565b60405180910390fd5b806003600084815260200190815260200160002081905550817f87ca26fd790e29652e1e9afeccda067a4cfe985dc8baee759571d031c6b46264826040516104f39190610f8d565b60405180910390a25050565b6000600580549050905090565b60026020528160005260406000206020528060005260406000206000915091509054906101000a900460ff1681565b7f000000000000000000000000000000000000000000000000000000000000000081565b6000610569610b86565b60036000838152602001908152602001600020549050919050565b61058c610b86565b6105966000610c04565b565b60008060009054906101000a900473ffffffffffffffffffffffffffffffffffffffff16905090565b60606000600580549050905080841061062657600067ffffffffffffffff8111156105ef576105ee611208565b5b60405190808252806020026020018201604052801561061d5781602001602082028036833780820191505090505b5091505061075a565b600083856106349190611266565b905081811115610642578190505b60008582610650919061129a565b67ffffffffffffffff81111561066957610668611208565b5b6040519080825280602002602001820160405280156106975781602001602082028036833780820191505090505b50905060008690505b8281101561075257600581815481106106bc576106bb6112ce565b5b9060005260206000200160009054906101000a900473ffffffffffffffffffffffffffffffffffffffff168288836106f4919061129a565b81518110610705576107046112ce565b5b602002602001019073ffffffffffffffffffffffffffffffffffffffff16908173ffffffffffffffffffffffffffffffffffffffff1681525050808061074a906112fd565b9150506106a0565b508093505050505b92915050565b60046020528060005260406000206000915054906101000a900460ff1681565b7f000000000000000000000000000000000000000000000000000000000000000081565b60006107ae610cc8565b600460003373ffffffffffffffffffffffffffffffffffffffff1673ffffffffffffffffffffffffffffffffffffffff16815260200190815260200160002060009054906101000a900460ff1661083a576040517f08c379a000000000000000000000000000000000000000000000000000000000815260040161083190611391565b60405180910390fd5b6000801b600360008581526020019081526020016000205403610892576040517f08c379a0000000000000000000000000000000000000000000000000000000008152600401610889906113fd565b60405180910390fd5b600260003373ffffffffffffffffffffffffffffffffffffffff1673ffffffffffffffffffffffffffffffffffffffff168152602001908152602001600020600084815260200190815260200160002060009054906101000a900460ff1615610930576040517f08c379a000000000000000000000000000000000000000000000000000000000815260040161092790611469565b60405180910390fd5b600360008481526020019081526020016000205482146109535760009050610add565b6001600260003373ffffffffffffffffffffffffffffffffffffffff1673ffffffffffffffffffffffffffffffffffffffff168152602001908152602001600020600085815260200190815260200160002060006101000a81548160ff021916908315150217905550600160066000858152602001908152602001600020600082825401925050819055507f000000000000000000000000000000000000000000000000000000000000000073ffffffffffffffffffffffffffffffffffffffff166340c10f19337f00000000000000000000000000000000000000000000000000000000000000006040518363ffffffff1660e01b8152600401610a59929190611489565b600060405180830381600087803b158015610a7357600080fd5b505af1158015610a87573d6000803e3d6000fd5b50505050823373ffffffffffffffffffffffffffffffffffffffff167feb1281b70ae01f050c84411bda09aae7159bc2cc127c899588f0f890b566d9be604051610ad090611524565b60405180910390a3600190505b610ae5610d17565b92915050565b610af3610b86565b600073ffffffffffffffffffffffffffffffffffffffff168173ffffffffffffffffffffffffffffffffffffffff1603610b62576040517f08c379a0000000000000000000000000000000000000000000000000000000008152600401610b59906115b6565b60405180910390fd5b610b6b81610c04565b50565b60066020528060005260406000206000915090505481565b610b8e610d20565b73ffffffffffffffffffffffffffffffffffffffff16610bac610598565b73ffffffffffffffffffffffffffffffffffffffff1614610c02576040517f08c379a0000000000000000000000000000000000000000000000000000000008152600401610bf990611622565b60405180910390fd5b565b60008060009054906101000a900473ffffffffffffffffffffffffffffffffffffffff169050816000806101000a81548173ffffffffffffffffffffffffffffffffffffffff021916908373ffffffffffffffffffffffffffffffffffffffff1602179055508173ffffffffffffffffffffffffffffffffffffffff168173ffffffffffffffffffffffffffffffffffffffff167f8be0079c531659141344cd1fd0a4f28419497f9722a3daafe3b4186f6b6457e060405160405180910390a35050565b600260015403610d0d576040517f08c379a0000000000000000000000000000000000000000000000000000000008152600401610d049061168e565b60405180910390fd5b6002600181905550565b60018081905550565b600033905090565b600080fd5b6000819050919050565b610d4081610d2d565b8114610d4b57600080fd5b50565b600081359050610d5d81610d37565b92915050565b6000819050919050565b610d7681610d63565b8114610d8157600080fd5b50565b600081359050610d9381610d6d565b92915050565b60008060408385031215610db057610daf610d28565b5b6000610dbe85828601610d4e565b9250506020610dcf85828601610d84565b9150509250929050565b610de281610d2d565b82525050565b6000602082019050610dfd6000830184610dd9565b92915050565b600073ffffffffffffffffffffffffffffffffffffffff82169050919050565b6000610e2e82610e03565b9050919050565b610e3e81610e23565b8114610e4957600080fd5b50565b600081359050610e5b81610e35565b92915050565b60008060408385031215610e7857610e77610d28565b5b6000610e8685828601610e4c565b9250506020610e9785828601610d4e565b9150509250929050565b60008115159050919050565b610eb681610ea1565b82525050565b6000602082019050610ed16000830184610ead565b92915050565b6000819050919050565b6000610efc610ef7610ef284610e03565b610ed7565b610e03565b9050919050565b6000610f0e82610ee1565b9050919050565b6000610f2082610f03565b9050919050565b610f3081610f15565b82525050565b6000602082019050610f4b6000830184610f27565b92915050565b600060208284031215610f6757610f66610d28565b5b6000610f7584828501610d4e565b91505092915050565b610f8781610d63565b82525050565b6000602082019050610fa26000830184610f7e565b92915050565b610fb181610e23565b82525050565b6000602082019050610fcc6000830184610fa8565b92915050565b60008060408385031215610fe957610fe8610d28565b5b6000610ff785828601610d4e565b925050602061100885828601610d4e565b9150509250929050565b600081519050919050565b600082825260208201905092915050565b6000819050602082019050919050565b61104781610e23565b82525050565b6000611059838361103e565b60208301905092915050565b6000602082019050919050565b600061107d82611012565b611087818561101d565b93506110928361102e565b8060005b838110156110c35781516110aa888261104d565b97506110b583611065565b925050600181019050611096565b5085935050505092915050565b600060208201905081810360008301526110ea8184611072565b905092915050565b60006020828403121561110857611107610d28565b5b600061111684828501610e4c565b91505092915050565b600082825260208201905092915050565b7f416c726561647920726567697374657265640000000000000000000000000000600082015250565b600061116660128361111f565b915061117182611130565b602082019050919050565b6000602082019050818103600083015261119581611159565b9050919050565b7f7175697a4964207a65726f000000000000000000000000000000000000000000600082015250565b60006111d2600b8361111f565b91506111dd8261119c565b602082019050919050565b60006020820190508181036000830152611201816111c5565b9050919050565b7f4e487b7100000000000000000000000000000000000000000000000000000000600052604160045260246000fd5b7f4e487b7100000000000000000000000000000000000000000000000000000000600052601160045260246000fd5b600061127182610d2d565b915061127c83610d2d565b925082820190508082111561129457611293611237565b5b92915050565b60006112a582610d2d565b91506112b083610d2d565b92508282039050818111156112c8576112c7611237565b5b92915050565b7f4e487b7100000000000000000000000000000000000000000000000000000000600052603260045260246000fd5b600061130882610d2d565b91507fffffffffffffffffffffffffffffffffffffffffffffffffffffffffffffffff820361133a57611339611237565b5b600182019050919050565b7f5265676973746572206669727374000000000000000000000000000000000000600082015250565b600061137b600e8361111f565b915061138682611345565b602082019050919050565b600060208201905081810360008301526113aa8161136e565b9050919050565b7f5175697a206e6f74207365740000000000000000000000000000000000000000600082015250565b60006113e7600c8361111f565b91506113f2826113b1565b602082019050919050565b60006020820190508181036000830152611416816113da565b9050919050565b7f416c726561647920636f6d706c65746564000000000000000000000000000000600082015250565b600061145360118361111f565b915061145e8261141d565b602082019050919050565b6000602082019050818103600083015261148281611446565b9050919050565b600060408201905061149e6000830185610fa8565b6114ab6020830184610dd9565b9392505050565b7f436f6e67726174756c6174696f6e732120596f7520616e73776572656420636f60008201527f72726563746c7921000000000000000000000000000000000000000000000000602082015250565b600061150e60288361111f565b9150611519826114b2565b604082019050919050565b6000602082019050818103600083015261153d81611501565b9050919050565b7f4f776e61626c653a206e6577206f776e657220697320746865207a65726f206160008201527f6464726573730000000000000000000000000000000000000000000000000000602082015250565b60006115a060268361111f565b91506115ab82611544565b604082019050919050565b600060208201905081810360008301526115cf81611593565b9050919050565b7f4f776e61626c653a2063616c6c6572206973206e6f7420746865206f776e6572600082015250565b600061160c60208361111f565b9150611617826115d6565b602082019050919050565b6000602082019050818103600083015261163b816115ff565b9050919050565b7f5265656e7472616e637947756172643a207265656e7472616e742063616c6c00600082015250565b6000611678601f8361111f565b915061168382611642565b602082019050919050565b600060208201905081810360008301526116a78161166b565b905091905056fea2646970667358221220ac16e2908fc807d0b22cc905bb535b9db8af893f96ddcf011ed9efcfac5167b264736f6c63430008120033","linkReferences":{}},"methodIdentifiers":{"checkQuizAnswer(uint256,bytes32)":"dcceb1c7","completedQuizzes(address,uint256)":"4f812483","escapeToken()":"5a22bd50","getQuizHash(uint256)":"60c00784","getRegisteredUsersSlice(uint256,uint256)":"c2adbe43","isRegistered(address)":"c3c5a547","owner()":"8da5cb5b","quizCompletions(uint256)":"f92e150a","register()":"1aa3a008","renounceOwnership()":"715018a6","rewardPerQuiz()":"d2e11eae","setQuizHash(uint256,bytes32)":"23eed97b","totalRegisteredUsers()":"3c7afca5","transferOwnership(address)":"f2fde38b"},"id":33}